{
  "contractName": "IskaContract",
  "abi": [
    {
      "constant": false,
      "inputs": [
        {
          "name": "n",
          "type": "uint256"
        }
      ],
      "name": "updateKmStand",
      "outputs": [],
      "payable": false,
      "stateMutability": "nonpayable",
      "type": "function",
      "signature": "0x55e4741d"
    },
    {
      "constant": true,
      "inputs": [],
      "name": "getKmStand",
      "outputs": [
        {
          "name": "",
          "type": "uint256"
        }
      ],
      "payable": false,
      "stateMutability": "view",
      "type": "function",
      "signature": "0x28839949"
    }
  ],
  "bytecode": "0x608060405234801561001057600080fd5b50610250806100206000396000f3fe60806040526004361061004c576000357c0100000000000000000000000000000000000000000000000000000000900463ffffffff168063288399491461005157806355e4741d1461007c575b600080fd5b34801561005d57600080fd5b506100666100b7565b6040518082815260200191505060405180910390f35b34801561008857600080fd5b506100b56004803603602081101561009f57600080fd5b81019080803590602001909291905050506100fd565b005b60008060003373ffffffffffffffffffffffffffffffffffffffff1673ffffffffffffffffffffffffffffffffffffffff16815260200190815260200160002054905090565b6000339050816000808373ffffffffffffffffffffffffffffffffffffffff1673ffffffffffffffffffffffffffffffffffffffff168152602001908152602001600020541015156101dd576040517f08c379a00000000000000000000000000000000000000000000000000000000081526004018080602001828103825260258152602001807f4a65206b616e206765656e206c6167657265206b6d207374616e6420646f6f7281526020017f676576656e00000000000000000000000000000000000000000000000000000081525060400191505060405180910390fd5b816000808373ffffffffffffffffffffffffffffffffffffffff1673ffffffffffffffffffffffffffffffffffffffff16815260200190815260200160002081905550505056fea165627a7a7230582065d8c0250abb067a6413d9ec35bbd87224fd41ffa4dd7e196999201d0fac2acf0029",
  "source": "pragma solidity ^0.5.0;\n\ncontract IskaContract {\n    \n    mapping(address => uint) kmStanden;\n\n    function updateKmStand(uint n) public {\n        address owner = msg.sender;\n\n        require(kmStanden[owner] < n, \"Je kan geen lagere km stand doorgeven\");\n\n        kmStanden[owner] = n;\n    }\n\n    function getKmStand() public view returns(uint) {\n        return kmStanden[msg.sender];\n    }\n}",
  "sourcePath": "/Users/murf/Desktop/iska/iska-contract/contracts/IskaContract.sol",
  "compiler": {
    "name": "solc",
    "version": "0.5.0+commit.1d4f565a.Emscripten.clang"
  },
  "schemaVersion": "3.0.1",
  "updatedAt": "2019-01-09T18:31:03.018Z",
  "devdoc": {
    "methods": {}
  },
  "userdoc": {
    "methods": {}
  }
}