{
  "contractName": "IskaContract",
  "abi": [
    {
      "constant": false,
      "inputs": [
        {
          "name": "n",
          "type": "uint256"
        }
      ],
      "name": "updateKmStand",
      "outputs": [],
      "payable": false,
      "stateMutability": "nonpayable",
      "type": "function",
      "signature": "0x55e4741d"
    },
    {
      "constant": true,
      "inputs": [],
      "name": "getKmStand",
      "outputs": [
        {
          "name": "",
          "type": "uint256"
        }
      ],
      "payable": false,
      "stateMutability": "view",
      "type": "function",
      "signature": "0x28839949"
    }
  ],
  "bytecode": "0x608060405234801561001057600080fd5b50610276806100206000396000f3fe60806040526004361061004c576000357c0100000000000000000000000000000000000000000000000000000000900463ffffffff168063288399491461005157806355e4741d1461007c575b600080fd5b34801561005d57600080fd5b506100666100b7565b6040518082815260200191505060405180910390f35b34801561008857600080fd5b506100b56004803603602081101561009f57600080fd5b81019080803590602001909291905050506100fd565b005b60008060003373ffffffffffffffffffffffffffffffffffffffff1673ffffffffffffffffffffffffffffffffffffffff16815260200190815260200160002054905090565b6000339050816000808373ffffffffffffffffffffffffffffffffffffffff1673ffffffffffffffffffffffffffffffffffffffff16815260200190815260200160002054101515610203576040517f08c379a00000000000000000000000000000000000000000000000000000000081526004018080602001828103825260428152602001807f4a65206b616e206765656e206c6167657265206b6d207374616e6420646f6f7281526020017f676576656e2064616e206465206c61617473742067657265676973747265657281526020017f646500000000000000000000000000000000000000000000000000000000000081525060600191505060405180910390fd5b816000808373ffffffffffffffffffffffffffffffffffffffff1673ffffffffffffffffffffffffffffffffffffffff16815260200190815260200160002081905550505056fea165627a7a72305820f49d967bfe7f35eea50ba2a663170f41b20944e6e7641ae271742dec30ad4d1e0029",
  "source": "pragma solidity ^0.5.0;\n\ncontract IskaContract {\n    mapping (address => uint) _kmStanden;\n\n    function updateKmStand(uint n) public {\n        address owner = msg.sender;\n        require(_kmStanden[owner] < n, \"Je kan geen lagere km stand doorgeven dan de laatst geregistreerde\");\n\n        _kmStanden[owner] = n;\n    }\n\n    function getKmStand() public view returns(uint) {\n        return _kmStanden[msg.sender];\n    }\n}",
  "sourcePath": "/Users/murf/Projects/joel-contract/contracts/IskaContract.sol",
  "compiler": {
    "name": "solc",
    "version": "0.5.0+commit.1d4f565a.Emscripten.clang"
  },
  "schemaVersion": "3.0.1",
  "updatedAt": "2019-01-09T08:45:36.483Z",
  "devdoc": {
    "methods": {}
  },
  "userdoc": {
    "methods": {}
  }
}